:100000000C94B9010C94CB010C94CB010C94CB0152
:100010000C94CB010C94CB010C94CB010C9495085F
:100020000C94CB010C94BC080C94CB010C94CB0128
:100030000C94CB010C94CB010C94CB010C94CB0110
:100040000C94CB010C94CB010C94CB010C94CB0100
:100050000C94CB010C9451080C94CB010C94CB0163
:100060000C94CB010C94CB010C94CB010C94CB01E0
:100070000C94CB010C94CB010C94CB010C94CB01D0
:100080000C94CB010C94CB010C94CB010C94CB01C0
:100090000C94CB010C94CB010C94CB010C94CB01B0
:1000A0000C94CB010C94CB010C94CB01000001010A
:1000B00000000101002020020001020004040200EF
:1000C00009030008080200090400010100000D05F1
:1000D0000080800100090600202002000D070008B2
:1000E0000800000A080020200200000900010100A9
:1000F00000000A0040400000090B00202000000919
:100100000C0004040000090D0002020000090E00AA
:10011000040403000A0F00101000000A100001017F
:1001200004000A1100404003000A1200808004000D
:100130000D1300202004000D1400101004000D15F4
:1001400000101002000D1600404002000D17008044
:100150008004000018002020040000190010100482
:1001600000001A0010100200001B004040020000B6
:100170001C0080800000091D008080020009000032
:1001800000000000004F00000007000700147F146B
:100190007F14242A7F2A12231308646236495522C9
:1001A000500000070000001C2241000041221C00FA
:1001B00014083E081408083E0808005030000008E3
:1001C00008080808006060000020100804023E5182
:1001D00049453E00427F4000426151494621414528
:1001E0004B311814127F1027454545393C4A49497F
:1001F0003003017109073649494936064949291E24
:100200000036360000005636000008142241001463
:100210001414141400412214080201510906324931
:1002200079413E7E1111117E7F494949363E414157
:1002300041227F4141413E7F494949417F090909A6
:10024000013E4149497A7F0808087F00417F41000B
:100250002040413F017F081422417F404040407FC1
:10026000020C027F7F0408107F3E4141413E7F091E
:100270000909063E4151215E7F091929464649492F
:10028000493101017F01013F4040403F1F20402094
:100290001F3F4038403F6314081463070870080785
:1002A0006151494543007F4141000204081020008C
:1002B00041417F00040201020440404040400001EF
:1002C00002040020545454787F484444383844444D
:1002D0004420384444487F3854545418087E090157
:1002E000020C5252523E7F0804047800447D4000C4
:1002F0002040443D007F1028440000417F40007CA6
:10030000041804787C0804047838444444387C1485
:10031000141408081414187C7C0804040848545465
:100320005420043F4440203C4040207C1C2040207E
:100330001C3C4038403C44281028440C5050503C51
:100340004464544C44000836410000007F00000023
:10035000413608000C02040806081C2A0808170089
:10036000180019001A001B001200130014001500D9
:10037000160011241FBECFEFDAE0DEBFCDBF21E0B3
:10038000A0E0B1E001C01D92AF39B207E1F70E94D1
:10039000E3080C94910B0C940000A4E3B1E0ED9100
:1003A000FD91309769F082819381892B49F080819A
:1003B0009181029729F482819381019793838283AB
:1003C00081E0A834B80759F70895CF93DF93DC0193
:1003D000C4E3D1E090E0EAE0299139912A173B0784
:1003E000F9F0232B09F4E92F9F5F9A30A9F7EA303F
:1003F00019F482E090E011C081E090E011969C93A6
:100400008E938FB7F894F0E0EE0FFF1FEC5CFE4F79
:10041000B183A0838FBF90E080E0DF91CF910895FA
:1004200084E090E0FACF9C01A0E2B1E0EAE090E045
:100430004D915D9142175307A9F0452B09F4E92F1F
:100440009F5F9A30A9F7EA3019F482E090E00895AE
:10045000F0E0EE0FFF1FE05EFE4F3183208390E05F
:1004600080E0089583E090E00895089508954F9204
:100470005F926F927F928F929F92AF92BF92CF9234
:10048000DF92EF92FF920F931F93CF93DF9300D0F1
:1004900000D000D0CDB7DEB78B014C019694879485
:1004A000B12CA12C9C0150E040E029833A834B837E
:1004B0005C831D82412C42E1542E4AE7642E712C4C
:1004C0004D814F5F4E83C301B20104C0959587955E
:1004D000779567954A95D2F7680D791D8A1D9B1D02
:1004E00029813A814B815C810E94F20A69017A017B
:1004F000C11454E0D506E104F10408F048C080912D
:10050000C100807F9D819E5F982B9093C100BB2787
:10051000AF2D9E2D8D2D8093BF002093D1002FE015
:10052000209FC001219F900D112464E670E00E947D
:10053000DE0A80E190E0861B970BA701960104C0BC
:1005400056954795379527958A95D2F7DA01C901CF
:10055000492F5A2F6B2F77274093BF008093D200EB
:1005600026960FB6F894DEBF0FBECDBFDF91CF91B8
:100570001F910F91FF90EF90DF90CF90BF90AF90C1
:100580009F908F907F906F905F904F9008953E81E5
:100590003D8396CF762F7170362F3470627027E0CE
:1005A000289FA001299F500D1124FA01E155FF4F0A
:1005B0009491FA01E255FF4F2491FA01E055FF4F63
:1005C000E491E230C9F128F4EE2351F0E130F1F08A
:1005D0000895E33009F446C0E43009F459C00895A1
:1005E000772341F0E4B1E22BE4B9E5B1332351F0D4
:1005F0009E2B0AC084B1E22FE095E823E4B9E5B16F
:100600006111F6CF90959E2395B90895772349F00F
:10061000E7B1E22BE7B9E8B1332359F09E2B98B943
:10062000089587B1E22FE095E823E7B9E8B16111B9
:10063000F5CF90959E23F3CF772349F0EAB1E22BD3
:10064000EAB9EBB1332359F09E2B9BB908958AB1D7
:10065000E22FE095E823EAB9EBB16111F5CF90956F
:100660009E23F3CF772349F0EDB1E22BEDB9EEB144
:10067000332359F09E2B9EB908958DB1E22FE0955A
:10068000E823EDB9EEB16111F5CF90959E23F3CF3C
:10069000772349F0E0B3E22BE0BBE1B3332359F019
:1006A0009E2B91BB089580B3E22FE095E823E0BB39
:1006B000E1B36111F5CF90959E23F3CFCF93DF93F4
:1006C000C2E6D1E0688190E080E00E94CA026981C0
:1006D00081E090E0DF91CF910C94CA02CF93DF9339
:1006E000EC01DB0187E08C9F90018D9F300D112480
:1006F000F901E155FF4F5491F901E255FF4F849103
:10070000F901E055FF4FE491E230E1F038F4EE23D7
:1007100061F0E130A1F090E040E009C0E330A9F0E1
:10072000E430C9F740B391B302C044B195B1952309
:10073000482371F081E0911185E08C930DC047B1A1
:1007400098B1F5CF4AB19BB1F2CF4DB19EB1EFCF89
:1007500082E09111F2CF1C92F901EE54FF4F6491A7
:10076000CE010E94CA0290E080E0DF91CF9108950F
:1007700062E671E090E080E00E946E0363E671E063
:1007800081E090E00C946E03DB0127E0AC01249F34
:10079000C001259F900D1124FC01E155FF4F2491CC
:1007A0004FEF5FEF11965C934E9380559F4FFC0186
:1007B00084918230E9F038F4882359F08130B1F027
:1007C00081E090E008958330A9F08430C9F7EFB15B
:1007D00001C0E3B1E22329F01D921C9290E080E079
:1007E000089581E090E08D939C93F8CFE6B1F2CF2D
:1007F000E9B1F0CFECB1EECFCF92DF92EF92FF9262
:100800000F931F93CF93DF9300D0CDB7DEB77C015A
:100810006B018A0180E190E0E114F10411F48EE0B3
:1008200090E0BE016F5F7F4F0E94C40381E0298189
:100830003A81232B09F080E0F801808381E190E088
:10084000EF2811F48FE090E0BE016F5F7F4F0E94B0
:10085000C403F801908181E029813A81232B09F0BA
:1008600080E08927F60180830F900F90DF91CF9170
:100870001F910F91FF90EF90DF90CF9008950F930D
:100880001F93CF93DF9300D0CDB7DEB78C01AE01BD
:100890004E5F5F4FBE016F5F7F4F0E94FC0383E09E
:1008A000000F111F8A95E1F7F801EB59FE4F2781E0
:1008B0003981231761F042815381648175814F5FD3
:1008C0005F4F6F4F7F4F4283538364837583F8017B
:1008D000EB59FE4F46812A81421761F042815381D4
:1008E00064817581415051096109710942835383C3
:1008F00064837583F801EB59FE4F368327830F908D
:100900000F90DF91CF911F910F91089581E090E0BA
:100910000C943F0490E080E00C943F045F926F924F
:100920007F928F929F92AF92BF92CF92DF92EF927F
:10093000FF920F931F93CF93DF9300D01F92CDB7F9
:10094000DEB78091560190915701892B09F04EC076
:100950008091540190915501029709F047C0809110
:1009600058019091590190935701809356010EE4DC
:1009700011E088E4E82E81E0F82E512C66246A9478
:10098000762C23E0C22ED12C34E0832E912C42E031
:10099000A42EB12C7A82698281E05816D1F1E2E06E
:1009A000BE015E1609F449C06F5F7F4F87E090E09B
:1009B0000E94C40389819A81F8012081318122300B
:1009C000310509F46DC008F049C02115310509F45D
:1009D00052C02130310509F454C053940E5F1F4FAB
:1009E000F2E0EF0EF11C83E05812D4CF0F900F907D
:1009F0000F90DF91CF911F910F91FF90EF90DF90BB
:100A0000CF90BF90AF909F908F907F906F905F90AE
:100A10000895BE016D5F7F4F88E090E00E946E03F5
:100A2000BE016F5F7F4F88E090E00E94C4036B813E
:100A300088E090E00E94CA02BDCF6D5F7F4F89E0E1
:100A400090E00E946E03BE016F5F7F4F89E090E0EF
:100A50000E94C4036B8189E090E0ECCF2330310524
:100A600031F12430310509F0B8CF8130910509F01A
:100A7000B4CFF80103C081309105B1F49183808334
:100A8000ACCF8130910579F4F70120813181233099
:100A9000310511F091838083F801B182A0829DCF4E
:100AA000019709F49ACFF801D182C08296CF8130A4
:100AB0009105F9F2F701808191818330910521F050
:100AC000019731F431832083F8019182808285CFB0
:100AD000B182A082F9CF47E0489F9001499F300D35
:100AE0001124F901E155FF4F9491F901E055FF4FB1
:100AF000E491E23051F138F4EE2379F0E130D1F0B5
:100B000081E090E00895E33059F1E430C9F7672BB4
:100B100091F5E1B3E92BE1BB05C0672B31F4E5B1F9
:100B2000E92BE5B990E080E0089585B1E92FE095E3
:100B3000E823F7CF672B21F4E8B1E92BE8B9F2CF2E
:100B400088B1E92FE095E823F9CF672B21F4EBB1C9
:100B5000E92BEBB9E7CF8BB1E92FE095E823F9CF8B
:100B6000672B21F4EEB1E92BEEB9DCCF8EB1E92F82
:100B7000E095E823F9CF81B3E92FE095E823CBCFC7
:100B80000F931F93CF93DF93C7E0D0E0082F10E0BF
:100B900061E070E083E090E00E946B05B8010C2EEC
:100BA00002C0759567950A94E2F76095709561703B
:100BB000772781E090E00E946B0570E060E083E0C1
:100BC00090E00E946B05219718F7DF91CF911F915C
:100BD0000F910895CF93C82F10929E010E94B803E1
:100BE00061E070E090E080E00E946B058C2F806BEC
:100BF0000E94C00580E10E94C00582E00E94C005FD
:100C0000CF910C945E03BF92CF92DF92EF92FF924E
:100C10000F931F93CF93DF93082FFC0120E03191B6
:100C2000332319F02F5F2531D1F73091640133233D
:100C300009F445C030919E0115E1131B211708F4FA
:100C4000122FEC010E94B80370E060E090E080E0B9
:100C50000E946B057E0185E0B82E8E2D801B8117CA
:100C600058F0DF91CF911F910F91FF90EF90DF909F
:100C7000CF90BF900C945E03F701C1917F01C052E9
:100C8000C03658F7CB9DE0011124D12CC12CC2589D
:100C9000DE4FFE01EC0DFD1D84910E94C005FFEFAB
:100CA000CF1ADF0A85E0C816D10499F780E00E94C8
:100CB000C00580919E018F5F80939E01CECFDF9112
:100CC000CF911F910F91FF90EF90DF90CF90BF9049
:100CD00008950F931F93CF93DF938C01EB01892B22
:100CE00051F080916401882319F080E00E94EA05A8
:100CF000C8010E940306209771F080916401882347
:100D000019F081E00E94EA05CE01DF91CF911F9199
:100D10000F910C940306DF91CF911F910F910895CD
:100D20002F923F924F925F926F927F928F929F92FB
:100D3000AF92BF92CF92DF92EF92FF920F931F93E9
:100D4000CF93DF93CDB7DEB7A9970FB6F894DEBF88
:100D50000FBECDBF80919A0190919B01892B09F024
:100D600023C18091980190919901029709F01CC1CB
:100D700080919C0190919D0190939B0180939A0199
:100D80008E010F5F1F4F1C8B0B8B08E613E04E018B
:100D90002BE0820E911C4B895C895E8B4D8B80ED24
:100DA000682E87E0782EAD89BE896D927D92BE8BCC
:100DB000AD8BF8018491BE016E5E7F4F90E00E9482
:100DC0006E030E5F1F4F2D893E892815390559F78F
:100DD00035E33A95F1F700000EE513E0F801849150
:100DE000BE016E5E7F4F90E00E946E030E5F1F4F4C
:100DF000F3E008361F0791F72FB7F8942090790198
:100E000060917501709176018091770190917801E0
:100E10002FBF28EE33E040E050E00E94110B04E1C8
:100E2000209E100111245101C12CD12CE12CF12C58
:100E300000E010E00E943C0B2AA33BA34CA35DA35F
:100E40006EA37FA388A799A72FB7F8942090790164
:100E50006091750170917601809177019091780190
:100E60002FBF28EE33E040E050E00E94110B14E168
:100E7000219E100111245101C12CD12CE12CF12C07
:100E800000E010E00E943C0BAAA0BBA0CCA0DDA01B
:100E9000EEA0FFA008A519A50E94450B49011A0163
:100EA0002B0188A399A3712C612C1F8AF301E25AAC
:100EB000FC4F8491BE01605F7F4F90E00E94C403AD
:100EC00088899989019709F088C0E1E0F0E0EC0F8A
:100ED000FD1FE60DF71D808191818C0130E020E03F
:100EE00040E050E0BA01888F198F2A8F3B8F4C8FDA
:100EF0005D8F6E8F7F8F9401A101B20188A199A1AE
:100F00005801C12CD12CE12CF12C00E010E00E9402
:100F10004E0B10F48082918222E0620E711C3AE046
:100F20006316710409F0C2CF4F89442381F0940104
:100F3000A101B20188A199A12F3C3740410551057B
:100F4000610571058105910509F008F47DCFEAE797
:100F5000F1E0AB89BC898D919D91BC8BAB8B2081DD
:100F600031818217930710F491838083228133812A
:100F70002817390710F4938382838281938120811B
:100F800031812817390740F4821B930B843FB1E06D
:100F90009B0710F09583848336960B891C892D89D5
:100FA0003E8902171307A9F6A9960FB6F894DEBF7B
:100FB0000FBECDBFDF91CF911F910F91FF90EF90AA
:100FC000DF90CF90BF90AF909F908F907F906F9069
:100FD0005F904F903F902F90089511E01F8B9CCF12
:100FE000CF93DF9380915E0190915F01892B51F542
:100FF000C0915C01D0915D01C230D10519F580919D
:101000005A0190915B0181309105F9F098F00297B7
:1010100089F181E090E090935D0180935C0170E044
:1010200060E084EF91E00E94370210925B01109221
:101030005A0108C0809160019091610190935F0115
:1010400080935E01DF91CF9108958DE491E09093BC
:1010500061018093600190935F0180935E0170E075
:1010600060E084EF91E00E943702D0935B01C0936F
:101070005A01E8CF8DE491E0909361018093600183
:1010800090935F0180935E016BE470E084EF91E0E8
:101090000E94370283E090E090935B0180935A01B5
:1010A000D1CF1F920F920FB60F9211242F933F931F
:1010B0004F935F936F937F938F939F93AF93BF9360
:1010C000EF93FF93809179018F5F8233D8F0809105
:1010D000750190917601A0917701B0917801019608
:1010E000A11DB11D8093750190937601A0937701A6
:1010F000B0937801E0910001F0910101309709F07F
:10110000099580E080937901FF91EF91BF91AF91B4
:101110009F918F917F916F915F914F913F912F910F
:101120000F900FBE0F901F9018951F920F920FB641
:101130000F9211242F933F934F935F936F937F935D
:101140008F939F93AF93BF93EF93FF93E091100121
:10115000F09111010995FF91EF91BF91AF919F918E
:101160008F917F916F915F914F913F912F910F9050
:101170000FBE0F901F9018951F920F920FB60F92EF
:1011800011242F933F934F935F936F937F938F938C
:101190009F93AF93BF93EF93FF93E0910E01F09174
:1011A0000F010995FF91EF91BF91AF919F918F91A1
:1011B0007F916F915F914F913F912F910F900FBE53
:1011C0000F901F901895CCEAD0E0FE0184913696DE
:1011D000649163FF03C090E00E94CA022796F1E089
:1011E000CE37DF0791F780EA8093800081E180931A
:1011F000810080E991E090938700809386001092AF
:1012000089001092880010928B0010928A00109230
:10121000C00084E08093C10089E08093C20081E037
:101220008093C3001092BF001092D20086E392E038
:1012300090930F0180930E01909311018093100100
:101240001092680010926B001DBA109275011092F6
:101250007601109277011092780110927901109224
:1012600001011092000192E094BD87E287BD809158
:101270006E00826080936E0095BD8FB7F894E4E3B2
:10128000F1E01192119291E0E834F907D1F78FBFA4
:1012900084E391E0C0E2D1E0199219928C179D0786
:1012A000D9F78FB7F8942DEC31E0309301012093FA
:1012B00000018FBF109249011092480110924F0116
:1012C00010924E0110924B0110924A01109251015E
:1012D0001092500110924D0110924C011092530146
:1012E0001092520110925501109254011092570120
:1012F00010925601109259011092580184E591E024
:101300000E94E5018091540190915501892B81F053
:1013100084E690E09093590180935801909357018F
:101320008093560182E090E09093550180935401A0
:1013300001E010E0109303010093020110920501F7
:10134000109204018EE894E09093070180930601C7
:1013500082E091E00E94130210925B0110925A0108
:1013600010925D0110925C0110925F0110925E017B
:1013700010926101109260018CE591E00E94E501FC
:10138000109309010093080110920B0110920A01B9
:1013900080EF97E090930D0180930C0188E091E03D
:1013A0000E9413020E94B80361E070E082E090E0C6
:1013B0000E946B05E5E3EA95F1F7000070E060E05C
:1013C00082E090E00E946B05F5E3FA95F1F70000EA
:1013D00061E070E090E080E00E946B0581EA0E948D
:1013E000C00588EC0E94C00581E80E94C0058FEF0F
:1013F0000E94C0058FEA0E94C0050E945E0381E042
:10140000809364010E94B80361E070E090E080E0A6
:101410000E946B0582E00E94C00510E061E070E070
:1014200090E080E00E946B05812F806B0E94C005D8
:1014300080E10E94C00570E060E090E080E00E94E2
:101440006B0504E880E00E94C0050150D9F71F5FDA
:10145000183021F70E945E0380E00E94EA0589E6C9
:1014600096E090931F0180931E018FB7F8942AE8AD
:1014700034E030930F0120930E018FBF8FB7F894A3
:1014800026E834E030931101209310018FBF9FB7FD
:10149000F8948091680081608093680080916B006F
:1014A000806180936B0081E08BBB9FBF9FB7F894F6
:1014B00080916A00806180936A00EE9AE69A9FBFED
:1014C00010926601109265014CE651E06BE671E006
:1014D00090E080E00E94FC038FB7F89410926701BF
:1014E000109268011092690110926A018FBF01E0A9
:1014F00010E010936E0100936D0144E751E063E743
:1015000071E081E090E00E94FC038FB7F8941092A4
:101510006F011092700110927101109272018FBFD1
:1015200010921301109212011092150110921401E1
:1015300080E996E0909317018093160182E191E093
:101540000E941302109299011092980110929B012F
:1015500010929A0110929D0110929C0188E991E0ED
:101560000E94E501109319010093180110921B01CC
:1015700010921A0185E392E090931D0180931C0163
:1015800088E191E00E941302789400E211E0F801F2
:10159000A191B1918F01109769F08D919C91119754
:1015A000019741F41496ED91FC91159712968D9147
:1015B0009C910995C017D10751F7E7CFAA1BBB1B18
:1015C00051E107C0AA1FBB1FA617B70710F0A61B43
:1015D000B70B881F991F5A95A9F780959095BC0164
:1015E000CD010895052E97FB1EF400940E94090B6F
:1015F00057FD07D00E94570B07FC03D04EF40C9404
:10160000090B50954095309521953F4F4F4F5F4FB7
:10161000089590958095709561957F4F8F4F9F4F5E
:101620000895E894DF93CF93FC01DB010E94790BCE
:101630007F936F93E9019A01AC01BF93AF933F93FE
:101640002F93DF010E94790B26F46C1B7D0B820B1C
:10165000930B9E01EB01FC010E94880BAF91BF919F
:101660002F913F910E94880BBE01CF01F9012F916C
:101670003F91CF91DF9108952A0D3B1D4C1D5D1DBB
:101680006E1D7F1D801F911F08952A193B094C096B
:101690005D096E097F09800B910B08952A153B05A2
:1016A0004C055D056E057F05800791070895A1E251
:1016B0001A2EAA1BBB1BFD010DC0AA1FBB1FEE1FCC
:1016C000FF1FA217B307E407F50720F0A21BB30B17
:1016D000E40BF50B661F771F881F991F1A9469F793
:1016E00060957095809590959B01AC01BD01CF01EF
:1016F0000895A29FB001B39FC001A39F700D811DEB
:101700001124911DB29F700D811D1124911D08950A
:101710000E94790B460F571FC81FD91F08F4319636
:061720000895F894FFCFCC
:00000001FF
